:020000040000FA
:100000008A11F52F00308A000408840A8207003420
:100010004234753466346634653472342034563470
:1000200061346C34753465343A34203400345334DC
:1000300074346134723474342034563461346C3422
:10004000753465343A342034003449346E34203405
:100050007734683469346C34653420346C346F34EC
:100060006F34703400344634723461346D34693422
:100070006E34673420344534723472346F347234E1
:1000800000344F34763465347234723475346E34DF
:1000900020344534723472346F347234003449344D
:1000A0006E3469347434693461346C3469347A344C
:1000B0006534643400344734653474342034633434
:1000C0006834613472343A34203400344234653454
:1000D000673469346E3420346C346F346F34703468
:1000E0000034523465346134643469346E346734B6
:1000F0000034493464346C3469346E346734003409
:0C010000523465347334653474340034B8
:100C7E007A347734F000831203130C1E472E482E5D
:100C8E00422E700899000800FC308316031387006B
:100C9E007030860077308F0026309800B030831287
:100CAE0003139800831603139B0119309900C0306B
:100CBE008B0030308C000800F200712E7208840018
:100CCE008A1102208A118A1141268A110130F100FF
:100CDE007108F207720884008A1102208A11003A04
:100CEE00031D7A2E7B2E652E08000130831203130E
:100CFE0087000630F2001330F100AD30F000F00B3B
:100D0E00862EF10B862EF20B862E8D2E831203135A
:100D1E0087010630F2001330F100AD30F000F00B19
:100D2E00962EF10B962EF20B962E9D2E0800831208
:100D3E000313981CA32EA42EF42E3A308A11632688
:100D4E008A110D308A1141268A118312031318124B
:100D5E001816F42E1E308A1163268A110D308A1150
:100D6E0041268A1183120313181DBE2EBF2EE62EA6
:100D7E002C308A1163268A110D308A1141268A1170
:100D8E008312031398121530F5004B30F400BE3069
:100D9E00F300F30BD02EF40BD02EF50BD02E00005B
:100DAE0083120313981679308A1163268A110D3037
:100DBE008A1141268A110D308A1141268A11831615
:100DCE0003131B1FEB2EEC2EF42E72308A116326AA
:100DDE008A110D308A1141268A11831203138C1E3B
:100DEE00F92EFA2EB12E6A308A1163268A110D3031
:100DFE008A1141268A111A30F400F830F300F30BF1
:100E0E00062FF40B062F0000831203131A08080096
:100E1E008312031398138A114B268A111030F8008F
:100E2E003930F7000D30F600F60B1B2FF70B1B2F8A
:100E3E00F80B1B2F222F83120313870110308A11F8
:100E4E0063268A117A088A1141268A110D308A1179
:100E5E0041268A1148308A1163268A110D308A1173
:100E6E0041268A110330F8008A30F7005530F6001B
:100E7E00F60B3F2FF70B3F2FF80B3F2F462F83120A
:100E8E00031398170330F8008A30F7005530F60038
:100E9E00F60B4F2FF70B4F2FF80B4F2F562F5F30B0
:100EAE008A1163268A110D308A1141268A11543017
:100EBE008A1163268A110D308A1141268A110B3050
:100ECE00F8002630F7005D30F600F60B6C2FF70BAE
:100EDE006C2FF80B6C2F732F8A119E268A11F60039
:100EEE007608FA0001308A1163268A117A088A116F
:100EFE0041268A110D308A1141268A1161307A06F7
:100F0E00031D8A2F8B2FB12F0130831203138700FD
:100F1E001530F8004B30F700BE30F600F60B952F6B
:100F2E00F70B952FF80B952F0000831203138701F3
:100F3E0061308A1141268A110B30F8002630F700F5
:100F4E005D30F600F60BA92FF70BA92FF80BA92F82
:100F5E00B02F562F62307A06031DB62FB72FD02F23
:100F6E0002308312031387001530F8004B30F70060
:100F7E00BE30F600F60BC12FF70BC12FF80BC12FA9
:100F8E00000083120313870162308A1141268A11F1
:100F9E00A32F63307A06031DD52FD62FEF2F0330E4
:100FAE008312031387001530F8004B30F700BE3064
:100FBE00F600F60BE02FF70BE02FF80BE02F0000FA
:100FCE0083120313870163308A1141268A11A32FDE
:100FDE008A117C268A11562F8A1100288A113F26E3
:100FEE008A11F9008A1140268A11FA0083018A11AA
:020FFE000F2FB3
:02400E00D538A3
:00000001FF
