:020000040000FA
:040000008A110B282E
:10000800FE00030EF1000A08F2008A158F288A11F3
:100018000D2883120313C40183018A15EA28831269
:100028000313BF010230A0002008AC002A2880304A
:100038008A1518218A1100308A1518218A1118305A
:100048008A1518218A118A15BB208A118312031375
:100058002C084402031C312832281B28C4018B2891
:10006800A401A501803083120313A0002008C0005A
:10007800240825040319412842284F284008A000D5
:10008800240A48280310A00CFF3E031D4628200818
:10009800A1002108C00040088A1518218A1183127E
:1000A800031324032504031D5A285B285F281830EE
:1000B800A0002008BF0024082504031D6428652823
:1000C80069283C30A0002008BF0000308A1518219C
:1000D8008A11831203133F088A1518218A118A1579
:1000E800BB208A11013083120313A4070318A50A41
:1000F8000030A5072508803AFF0080307F02031DE5
:10010800872802302402031C8A288B283628831269
:1001180003132C084402031C922893283428C40192
:10012800F928A801A9012908803AFF0080307F0238
:10013800031DA02803302802031CA328A428A528EF
:10014800F928803083120313A0002008C000280873
:1001580029040319B028B128BE284008A000280A9D
:10016800B7280310A00CFF3E031DB5282008A100E6
:100178002108C00040088A1518218A11023083120C
:10018800031328062904031DCA28CB28CF281830B2
:10019800A0002008BF0028032904031DD428D5285F
:1001A800D9283C30A0002008BF0028082904031DD6
:1001B800DE28DF28E3287E30A0002008BF000030BA
:1001C8008A1518218A11831203133F088A151821EA
:1001D8008A118A15BB208A11013083120313A807DC
:1001E8000318A90A0030A9079728831203132C08BB
:1001F8004402031C002901299528C4017229AD0174
:10020800AE012E08803AFF0080307F02031D0E29C0
:1002180004302D02031C1129122913297229803058
:1002280083120313A0002008C0002D082E04031910
:100238001E291F292C294008A0002D0A2529031052
:10024800A00CFF3E031D23292008A1002108C0009F
:1002580040088A1518218A110330831203132D06CA
:100268002E04031D382939293D291830A0002008FB
:10027800BF0002302D062E04031D432944294829B6
:100288003C30A0002008BF002D032E04031D4D297B
:100298004E2952297E30A0002008BF002D082E04C8
:1002A800031D572958295C29FF30A0002008BF00EA
:1002B80000308A1518218A11831203133F088A1502
:1002C80018218A118A15BB208A1101308312031361
:1002D800AD070318AE0A0030AE07052904308312B3
:1002E80003134402031C79297A290329C401F2293A
:1002F800B101B2013208803AFF0080307F02031D4D
:10030800872905303102031C8A298B298C29F22977
:10031800803083120313A0002008C0003108320483
:10032800031997299829A5294008A000310A9E2970
:100338000310A00CFF3E031D9C292008A1002108E2
:10034800C00040088A1518218A110430831203134B
:1003580031063204031DB129B229B6291830A0008C
:100368002008BF000330310632040319BC29BD2917
:10037800C32931083204031DC229C329C7293C30C7
:10038800A0002008BF00023031063204031DCD2929
:10039800CE29D2297E30A0002008BF0031033204C4
:1003A800031DD729D829DC29FF30A0002008BF0069
:1003B80000308A1518218A11831203133F088A1501
:1003C80018218A118A15BB208A1101308312031360
:1003D800B1070318B20A0030B2077E29043083122D
:1003E80003134402031CF929FA297C29C401792A38
:1003F800B501B6013608803AFF0080307F02031D40
:10040800072A06303502031C0A2A0B2A0C2A792AE5
:10041800803083120313A0002008C000350836047A
:100428000319172A182A252A4008A000350A1E2A67
:100438000310A00CFF3E031D1C2A2008A100210860
:10044800C00040088A1518218A1105308312031349
:1004580035063604031D312A322A362A1830A00000
:100468002008BF0004303506360403193C2A3D2A0B
:10047800492A350836040319422A432A492A3503EA
:100488003604031D482A492A4D2A3C30A00020087A
:10049800BF00033035063604031D532A542A582A50
:1004A8007E30A0002008BF00023035063604031D48
:1004B8005E2A5F2A632AFF30A0002008BF000030B0
:1004C8008A1518218A11831203133F088A151821E7
:1004D8008A118A15BB208A11013083120313B507CC
:1004E8000318B60A0030B607FE2904308312031336
:1004F8004402031C802A812AFC29C401072BB90164
:10050800BA013A08803AFF0080307F02031D8E2A24
:1005180007303902031C912A922A932A072B80302C
:1005280083120313A0002008C00039083A040319F5
:100538009E2A9F2AAC2A4008A000390AA52A03103F
:10054800A00CFF3E031DA32A2008A1002108C0001B
:1005580040088A1518218A110630831203133906B8
:100568003A04031DB82AB92ABD2A1830A000200869
:10057800BF00053039063A040319C32AC42AD72A0A
:1005880039083A040319C92ACA2AD72A39033A0466
:100598000319CF2AD02AD72A023039063A04031D74
:1005A800D62AD72ADB2A3C30A0002008BF00043016
:1005B80039063A04031DE12AE22AE62A7E30A00021
:1005C8002008BF00033039063A04031DEC2AED2A3F
:1005D800F12AFF30A0002008BF0000308A1518213A
:1005E8008A11831203133F088A1518218A118A1564
:1005F800BB208A11013083120313B9070318BA0A02
:100608000030BA07852A0530831203134402031CFD
:100618000E2B0F2B832AC4019C2BBD01BE013E0863
:10062800803AFF0080307F02031D1C2B08303D02FA
:10063800031C1F2B202B212B9C2B80308312031390
:10064800A0002008C0003D083E0403192C2B2D2BC8
:100658003A2B4008A0003D0A332B0310A00CFF3EA4
:10066800031D312B2008A1002108C00040088A156D
:1006780018218A110730831203133D063E04031D17
:10068800462B472B4B2B1830A0002008BF00063004
:100698003D063E040319512B522B6C2B3D083E049A
:1006A8000319572B582B6C2B3D033E0403195D2B64
:1006B8005E2B6C2B02303D063E040319642B652B20
:1006C8006C2B03303D063E04031D6B2B6C2B702BEB
:1006D8003C30A0002008BF0005303D063E04031D45
:1006E800762B772B7B2B7E30A0002008BF000430B0
:1006F8003D063E04031D812B822B862BFF30A00074
:100708002008BF0000308A1518218A1183120313AC
:100718003F088A1518218A118A15BB208A110130D1
:1007280083120313BD070318BE0A0030BE07132B3C
:100738000530831203134402031CA32BA42B112B93
:10074800C401A92B8A11D9268A11C8308312031330
:100758004402031CB02BB12BA62B352C0130BB0057
:100768000030BC003C08803AFF0080307F02031D47
:10077800BF2B08303B02031CC22BC32BC42B352CC8
:10078800803083120313A0002008C0003B083C04FB
:100798000319CF2BD02BDD2B4008A0003B0AD62B0A
:1007A8000310A00CFF3E031DD42B2008A100210834
:1007B800C00040088A1518218A11073083120313D4
:1007C8003B063C040319E92BEA2B052C3B033C04AC
:1007D8000319EF2BF02B052C02303B063C040319C0
:1007E800F62BF72B052C03303B063C040319FD2B95
:1007F800FE2B052C04303B063C04031D042C052C61
:10080800092C3C30A0002008BF0006303B063C0401
:10081800031D0F2C102C142C7E30A0002008BF00C4
:1008280005303B063C04031D1A2C1B2C1F2CFF30E3
:10083800A0002008BF0000308A1518218A118312F1
:1008480003133F088A1518218A118A15BB208A11BB
:10085800013083120313BB070318BC0A0030BC071E
:10086800B62B0530831203134402031C3C2C3D2C89
:10087800B22BC401BC2C0230B7000030B8003808D5
:10088800803AFF0080307F02031D4C2C083037026D
:10089800031C4F2C502C512CBC2C8030831203137A
:1008A800A0002008C0003708380403195C2C5D2C10
:1008B8006A2C4008A000370A632C0310A00CFF3EE6
:1008C800031D612C2008A1002108C00040088A15DA
:1008D80018218A11023083120313370638040319CA
:1008E800762C772C8C2C03303706380403197D2C92
:1008F8007E2C8C2C0430370638040319842C852C64
:100908008C2C053037063804031D8B2C8C2C902C2E
:100918003C30A0002008BF00073037063804031D0C
:10092800962C972C9B2C7E30A0002008BF00063008
:1009380037063804031DA12CA22CA62CFF30A000DA
:100948002008BF0000308A1518218A11831203136A
:100958003F088A1518218A118A15BB208A1101308F
:1009680083120313B7070318B80A0030B807432CDB
:100978000430831203134402031CC32CC42C3F2CE1
:10098800C401382D0330B3000030B4003408803A75
:10099800FF0080307F02031DD32C08303302031C74
:1009A800D62CD72CD82C382D803083120313A000D6
:1009B8002008C000330834040319E32CE42CF12C7C
:1009C8004008A000330AEA2C0310A00CFF3E031DC8
:1009D800E82C2008A1002108C00040088A15182129
:1009E8008A11033083120313330634040319FD2CD0
:1009F800FE2C132D0430330634040319042D052D61
:100A0800132D05303306340403190B2D0C2D132D2B
:100A1800063033063404031D122D132D172D3C30D8
:100A2800A0002008BF00073033063404031D1D2D25
:100A38001E2D222DFF30A0002008BF0000308A158F
:100A480018218A11831203133F088A1518218A1165
:100A58008A15BB208A11013083120313B3070318C8
:100A6800B40A0030B407CA2C0430831203134402BA
:100A7800031C3F2D402DC62CC401A92D0430AF0006
:100A88000030B0003008803AFF0080307F02031D3C
:100A98004F2D08302F02031C522D532D542DA92DF4
:100AA800803083120313A0002008C0002F083004F0
:100AB80003195F2D602D6D2D4008A0002F0A662DAB
:100AC8000310A00CFF3E031D642D2008A10021087F
:100AD800C00040088A1518218A11043083120313B4
:100AE8002F0630040319792D7A2D8F2D05302F0606
:100AF80030040319802D812D8F2D06302F063004E8
:100B08000319872D882D8F2D07302F063004031DDC
:100B18008E2D8F2D932D3C30A0002008BF00003073
:100B28008A1518218A11831203133F088A15182180
:100B38008A118A15BB208A11013083120313AF076B
:100B48000318B00A0030B007462D831203132C088F
:100B58004402031CB02DB12D422DC401132E0530C3
:100B6800AA000030AB002B08803AFF0080307F02DB
:100B7800031DC02D08302A02031CC32DC42DC52D0A
:100B8800132E803083120313A0002008C0002A0807
:100B98002B040319D02DD12DDE2D4008A0002A0AE0
:100BA800D72D0310A00CFF3E031DD52D2008A10052
:100BB8002108C00040088A1518218A1105308312BF
:100BC80003132A062B040319EA2DEB2DF92D063001
:100BD8002A062B040319F12DF22DF92D07302A06C8
:100BE8002B04031DF82DF92DFD2D3C30A000200805
:100BF800BF0000308A1518218A11831203133F0899
:100C08008A1518218A118A15BB208A11013083128E
:100C18000313AA070318AB0A0030AB07B72D8312DA
:100C280003132C084402031C1A2E1B2EB32DC401D7
:100C3800762E0630A6000030A7002708803AFF006D
:100C480080307F02031D2A2E08302602031C2D2E19
:100C58002E2E2F2E762E803083120313A00020080C
:100C6800C0002608270403193A2E3B2E482E4008B8
:100C7800A000260A412E0310A00CFF3E031D3F2EA4
:100C88002008A1002108C00040088A1518218A11EF
:100C9800063083120313260627040319542E552EF3
:100CA8005C2E073026062704031D5B2E5C2E602E63
:100CB8003C30A0002008BF0000308A1518218A1196
:100CC800831203133F088A1518218A118A15BB203D
:100CD8008A11013083120313A6070318A70A0030EC
:100CE800A707212E831203132C084402031C7D2E10
:100CF8007E2E1D2EC401CF2E0730A2000030A30087
:100D08002308803AFF0080307F02031D8D2E0830B3
:100D18002202031C902E912E922ECF2E8030831209
:100D28000313A0002008C0002208230403199D2EE5
:100D38009E2EAB2E4008A000220AA42E0310A00C61
:100D4800FF3E031DA22E2008A1002108C000400874
:100D58008A1518218A1107308312031322062304E7
:100D6800031DB72EB82EB92EBF0100308A151821E1
:100D78008A11831203133F088A1518218A118A15CC
:100D8800BB208A11013083120313A2070318A30A98
:100D98000030A307842E831203132C084402031C7B
:100DA800D62ED72E802EC4010800F901FA01803012
:100DB800F5007508F80079087A040319E42EE52E81
:100DC800F22E7808F500790AEB2E0310F50CFF3E99
:100DD800031DE92E7508F6007608F80078088A15CC
:100DE80018218A11073079067A04031DFC2EFD2E7E
:100DF800022F1830F5007508F700382F79087A04A3
:100E08000319072F082F232F79037A0403190D2FAD
:100E18000E2F232F023079067A040319142F152F69
:100E2800232F033079067A0403191B2F1C2F232F35
:100E3800063079067A04031D222F232F282F3C30F1
:100E4800F5007508F700382F053079067A04031D78
:100E58002E2F2F2F342F7E30F5007508F700382FEE
:100E6800FF30F5007508F70000308A1518218A113F
:100E780077088A1518218A118A15BB208A11013032
:100E8800F9070318FA0A0030FA077A08803AFF00CF
:100E980080307F02031D522F08307902031C552F22
:100EA800562FDB2E01308A1518218A1100308A1539
:100EB80018218A1100308A1518218A118A15BB2039
:100EC8008A110800F901FA01F801F80A79087A0488
:100ED80003196F2F702F7D2F7808F500790A762F68
:100EE8000310F50DFF3E031D742F7508F6007608F4
:100EF800F80078088A1518218A11073079067A04CB
:100F0800031D872F882F8D2F1830F5007508F700DF
:100F1800C32F79087A040319922F932FAE2F7903E0
:100F28007A040319982F992FAE2F023079067A0484
:100F380003199F2FA02FAE2F033079067A040319C7
:100F4800A62FA72FAE2F063079067A04031DAD2FE2
:100F5800AE2FB32F3C30F5007508F700C32F0530CE
:100F680079067A04031DB92FBA2FBF2F7E30F500FA
:100F78007508F700C32FFF30F5007508F7007708EC
:100F88008A1518218A1100308A1518218A118A15A4
:100F9800BB208A110130F9070318FA0A0030FA0752
:100FA8007A08803AFF0080307F02031DDD2F083069
:100FB8007902031CE02FE12F682F80308A15182151
:100FC8008A1100308A1518218A1100308A151821D3
:100FD8008A118A15BB208A1108008312031306128E
:100FE8008A15A5208A1108008312031306168A158C
:060FF800A5208A1108008B
:10111E00F630831203138F003B308E000C1C982880
:10112E0099289E280130F0007008C4070C10720830
:10113E008A00710E8300FE0E7E0E090083120313C9
:10114E0007130330F300F30BAA28831203130717B8
:10115E000330F300F30BB12883120313071303308C
:10116E00F300F30BB82808008312031307120330A1
:10117E00F300F30BC0288312031307160330F3009A
:10118E00F30BC7288312031307120330F300F30B7C
:10119E00CE2808000F3083160313870060308600B8
:1011AE0077308F0083120313071310149016101646
:1011BE00F6308F003B308E00C0308B0031308316FE
:1011CE0003138C0008008A15D1208A158A15722106
:1011DE008A150B3083120313C3002630C2005D3014
:1011EE00C100C10BF828C20BF828C30BF828000069
:1011FE008A1113208A150B3083120313C300263075
:10120E00C2005D30C100C10B0A29C20B0A29C30BF3
:10121E000A29000083120313C401C401ED288A11A8
:10122E000B28F400741C1C291D2921298A11F8276A
:10123E008A1524298A11F1278A15F41C27292829B1
:10124E002C298A11F8278A152F298A11F1278A1538
:10125E00741D3229332937298A11F8278A153A291C
:10126E008A11F1278A15F41D3D293E2942298A113A
:10127E00F8278A1545298A11F1278A15741E4829DF
:10128E0049294D298A11F8278A1550298A11F127E3
:10129E008A15F41E5329542958298A11F8278A15BC
:1012AE005B298A11F1278A15741F5E295F2963292C
:1012BE008A11F8278A1566298A11F1278A15F41FD3
:1012CE0069296A296E298A11F8278A1571298A11C6
:1012DE00F1278A15080083120313BF010230A00004
:1012EE002008AC00892901308A1518218A1518307A
:1012FE008A1518218A1500308A1518218A158A1523
:10130E00BB208A15831203132C084402031C902958
:10131E0091297A29C401E629A401A5018312031398
:10132E00C001C00A2408250403199E299F29AC294F
:10133E004008A000240AA5290310A00DFF3E031D9E
:10134E00A3292008A1002108C00040088A151821F1
:10135E008A158312031324032504031DB729B82904
:10136E00BC291830A0002008BF0024082504031D46
:10137E00C129C229C6293C30A0002008BF003F0861
:10138E008A1518218A1500308A1518218A158A1592
:10139E00BB208A15013083120313A4070318A50A74
:1013AE000030A5072508803AFF0080307F02031D1C
:1013BE00E22902302402031CE529E629952983122D
:1013CE0003132C084402031CED29EE299329C401B2
:1013DE00502AA801A9012908803AFF0080307F0217
:1013EE00031DFB2903302802031CFE29FF29002AB6
:1013FE00502A83120313C001C00A280829040319B6
:10140E00092A0A2A172A4008A000280A102A0310BF
:10141E00A00DFF3E031D0E2A2008A1002108C000CA
:10142E0040088A1518218A150230831203132806E4
:10143E002904031D232A242A282A1830A000200854
:10144E00BF0028032904031D2D2A2E2A322A3C30E0
:10145E00A0002008BF0028082904031D372A382AB7
:10146E003C2A7E30A0002008BF003F088A151821B4
:10147E008A1500308A1518218A158A15BB208A15FF
:10148E00013083120313A8070318A90A0030A90715
:10149E00F229831203132C084402031C572A582ADC
:1014AE00F029C401C52AAD01AE012E08803AFF0015
:1014BE0080307F02031D652A04302D02031C682A2A
:1014CE00692A6A2AC52A83120313C001C00A2D088D
:1014DE002E040319732A742A812A4008A0002D0AAB
:1014EE007A2A0310A00DFF3E031D782A2008A100C2
:1014FE002108C00040088A1518218A15033083126E
:10150E0003132D062E04031D8D2A8E2A922A1830BF
:10151E00A0002008BF0002302D062E04031D982ABD
:10152E00992A9D2A3C30A0002008BF002D032E04CE
:10153E00031DA22AA32AA72A7E30A0002008BF00DE
:10154E002D082E04031DAC2AAD2AB12AFF30A000AF
:10155E002008BF003F088A1518218A1500308A1509
:10156E0018218A158A15BB208A15013083120313A0
:10157E00AD070318AE0A0030AE075C2A04308312A2
:10158E0003134402031CCC2ACD2A5A2AC401412B30
:10159E00B101B2013208803AFF0080307F02031D94
:1015AE00DA2A05303102031CDD2ADE2ADF2A412B1E
:1015BE0083120313C001C00A310832040319E82A4A
:1015CE00E92AF62A4008A000310AEF2A0310A00DDE
:1015DE00FF3E031DED2A2008A1002108C00040088F
:1015EE008A1518218A15043083120313310632042A
:1015FE00031D022B032B072B1830A0002008BF0061
:10160E0003303106320403190D2B0E2B142B310827
:10161E003204031D132B142B182B3C30A000200872
:10162E00BF00023031063204031D1E2B1F2B232B4D
:10163E007E30A0002008BF0031033204031D282B8A
:10164E00292B2D2BFF30A0002008BF003F088A1544
:10165E0018218A1500308A1518218A158A15BB2083
:10166E008A15013083120313B1070318B20A003032
:10167E00B207D12A0430831203134402031C482BF1
:10168E00492BCF2AC401C42BB501B6013608803AC6
:10169E00FF0080307F02031D562B06303502031CDF
:1016AE00592B5A2B5B2BC42B83120313C001C00A78
:1016BE00350836040319642B652B722B4008A000E5
:1016CE00350A6B2B0310A00DFF3E031D692B20085E
:1016DE00A1002108C00040088A1518218A1505307E
:1016EE008312031335063604031D7E2B7F2B832BAB
:1016FE001830A0002008BF00043035063604031948
:10170E00892B8A2B962B3508360403198F2B902B99
:10171E00962B35033604031D952B962B9A2B3C30B6
:10172E00A0002008BF00033035063604031DA02B91
:10173E00A12BA52B7E30A0002008BF00023035065D
:10174E003604031DAB2BAC2BB02BFF30A0002008B2
:10175E00BF003F088A1518218A1500308A151821F6
:10176E008A158A15BB208A15013083120313B5071B
:10177E000318B60A0030B6074D2B0430831203133C
:10178E004402031CCB2BCC2B4B2BC4014E2CB9018A
:10179E00BA013A08803AFF0080307F02031DD92B30
:1017AE0007303902031CDC2BDD2BDE2B4E2C831273
:1017BE000313C001C00A39083A040319E72BE82BBA
:1017CE00F52B4008A000390AEE2B0310A00DFF3EAA
:1017DE00031DEC2B2008A1002108C00040088A152B
:1017EE0018218A1506308312031339063A04031D95
:1017FE00012C022C062C1830A0002008BF0005304A
:10180E0039063A0403190C2C0D2C202C39083A04F5
:10181E000319122C132C202C39033A040319182CFB
:10182E00192C202C023039063A04031D1F2C202CB3
:10183E00242C3C30A0002008BF00043039063A04A6
:10184E00031D2A2C2B2C2F2C7E30A0002008BF002D
:10185E00033039063A04031D352C362C3A2CFF3052
:10186E00A0002008BF003F088A1518218A150030F5
:10187E008A1518218A158A15BB208A150130831204
:10188E000313B9070318BA0A0030BA07D02B053074
:10189E00831203134402031C552C562CCE2BC40169
:1018AE00DF2CBD01BE013E08803AFF0080307F0272
:1018BE00031D632C08303D02031C662C672C682C1C
:1018CE00DF2C83120313C001C00A3D083E04031926
:1018DE00712C722C7F2C4008A0003D0A782C03102E
:1018EE00A00DFF3E031D762C2008A1002108C0008C
:1018FE0040088A1518218A150730831203133D06F6
:10190E003E04031D8B2C8C2C902C1830A00020082C
:10191E00BF0006303D063E040319962C972CB12CC1
:10192E003D083E0403199C2C9D2CB12C3D033E0416
:10193E000319A22CA32CB12C02303D063E04031930
:10194E00A92CAA2CB12C03303D063E04031DB02C4D
:10195E00B12CB52C3C30A0002008BF0005303D0650
:10196E003E04031DBB2CBC2CC02C7E30A0002008D6
:10197E00BF0004303D063E04031DC62CC72CCB2CE5
:10198E00FF30A0002008BF003F088A1518218A15D5
:10199E0000308A1518218A158A15BB208A15013048
:1019AE0083120313BD070318BE0A0030BE075A2C5C
:1019BE000530831203134402031CE62CE72C582C2B
:1019CE00C401EC2C8A1166278A15C83083120313C2
:1019DE004402031CF32CF42CE92C742D0130BB00B3
:1019EE000030BC003C08803AFF0080307F02031DAF
:1019FE00022D08303B02031C052D062D072D742DDC
:101A0E0083120313C001C00A3B083C040319102DB6
:101A1E00112D1E2D4008A0003B0A172D0310A00DFE
:101A2E00FF3E031D152D2008A1002108C00040080F
:101A3E008A1518218A150730831203133B063C04BE
:101A4E0003192A2D2B2D462D3B033C040319302D53
:101A5E00312D462D02303B063C040319372D382D0F
:101A6E00462D03303B063C0403193E2D3F2D462DDB
:101A7E0004303B063C04031D452D462D4A2D3C30BB
:101A8E00A0002008BF0006303B063C04031D502D6D
:101A9E00512D552D7E30A0002008BF0005303B068D
:101AAE003C04031D5B2D5C2D602DFF30A000200833
:101ABE00BF003F088A1518218A1500308A15182193
:101ACE008A158A15BB208A15013083120313BB07B2
:101ADE000318BC0A0030BC07F92C0530831203131F
:101AEE004402031C7B2D7C2DF52CC401F72D0230F6
:101AFE00B7000030B8003808803AFF0080307F020F
:101B0E00031D8B2D08303702031C8E2D8F2D902D2B
:101B1E00F72D83120313C001C00A370838040319C6
:101B2E00992D9A2DA72D4008A000370AA02D03103D
:101B3E00A00DFF3E031D9E2D2008A1002108C00010
:101B4E0040088A1518218A150230831203133706AE
:101B5E0038040319B32DB42DC92D033037063804BC
:101B6E000319BA2DBB2DC92D0430370638040319BD
:101B7E00C12DC22DC92D053037063804031DC82DC1
:101B8E00C92DCD2D3C30A0002008BF0007303706F0
:101B9E003804031DD32DD42DD82D7E30A00020085F
:101BAE00BF00063037063804031DDE2DDF2DE32D72
:101BBE00FF30A0002008BF003F088A1518218A15A3
:101BCE0000308A1518218A158A15BB208A15013016
:101BDE0083120313B7070318B80A0030B807822D13
:101BEE000430831203134402031CFE2DFF2D7E2DA1
:101BFE00C4016F2E0330B3000030B4003408803AB5
:101C0E00FF0080307F02031D0E2E08303302031CAE
:101C1E00112E122E132E6F2E83120313C001C00A23
:101C2E003308340403191C2E1D2E2A2E4008A00042
:101C3E00330A232E0310A00DFF3E031D212E200874
:101C4E00A1002108C00040088A1518218A1503300A
:101C5E0083120313330634040319362E372E4C2EFB
:101C6E0004303306340403193D2E3E2E4C2E05301F
:101C7E00330634040319442E452E4C2E06303306FB
:101C8E003404031D4B2E4C2E502E3C30A000200849
:101C9E00BF00073033063404031D562E572E5B2E1D
:101CAE00FF30A0002008BF003F088A1518218A15B2
:101CBE0000308A1518218A158A15BB208A15013025
:101CCE0083120313B3070318B40A0030B407052EAA
:101CDE000430831203134402031C762E772E012E3A
:101CEE00C401DC2E0430AF000030B0003008803A62
:101CFE00FF0080307F02031D862E08302F02031C4A
:101D0E00892E8A2E8B2EDC2E83120313C001C00A5D
:101D1E002F0830040319942E952EA22E4008A000F1
:101D2E002F0A9B2E0310A00DFF3E031D992E200897
:101D3E00A1002108C00040088A1518218A15043018
:101D4E00831203132F0630040319AE2EAF2EC42EAA
:101D5E0005302F0630040319B52EB62EC42E0630CC
:101D6E002F0630040319BC2EBD2EC42E07302F06AD
:101D7E003004031DC32EC42EC82E3C30A0002008F4
:101D8E00BF003F088A1518218A1500308A151821C0
:101D9E008A158A15BB208A15013083120313AF07EB
:101DAE000318B00A0030B0077D2E831203132C08DF
:101DBE004402031CE32EE42E792EC401422F05307B
:101DCE00AA000030AB002B08803AFF0080307F0263
:101DDE00031DF32E08302A02031CF62EF72EF82EC2
:101DEE00422F83120313C001C00A2A082B040319C1
:101DFE00012F022F0F2F4008A0002A0A082F0310D0
:101E0E00A00DFF3E031D062F2008A1002108C000D3
:101E1E0040088A1518218A150530831203132A06E5
:101E2E002B0403191B2F1C2F2A2F06302A062B04D6
:101E3E000319222F232F2A2F07302A062B04031DC6
:101E4E00292F2A2F2E2F3C30A0002008BF003F083C
:101E5E008A1518218A1500308A1518218A158A15B7
:101E6E00BB208A15013083120313AA070318AB0A8D
:101E7E000030AB07EA2E831203132C084402031C16
:101E8E00492F4A2FE62EC401A12F0630A60000309E
:101E9E00A7002708803AFF0080307F02031D592FCC
:101EAE0008302602031C5C2F5D2F5E2FA12F83129C
:101EBE000313C001C00A260827040319672F682FD1
:101ECE00752F4008A000260A6E2F0310A00DFF3EAE
:101EDE00031D6C2F2008A1002108C00040088A15A0
:101EEE0018218A15063083120313260627040319B8
:101EFE00812F822F892F073026062704031D882F56
:101F0E00892F8D2F3C30A0002008BF003F088A1576
:101F1E0018218A1500308A1518218A158A15BB20BA
:101F2E008A15013083120313A6070318A70A00307F
:101F3E00A707502F831203132C084402031CA82F4B
:101F4E00A92F4C2FC401F62F0730A2000030A3009A
:101F5E002308803AFF0080307F02031DB82F08301F
:101F6E002202031CBB2FBC2FBD2FF62F831203138F
:101F7E00C001C00A220823040319C62FC72FD42F6D
:101F8E004008A000220ACD2F0310A00DFF3E031D16
:101F9E00CB2F2008A1002108C00040088A15182167
:101FAE008A1507308312031322062304031DE02F24
:101FBE00E12FE22FBF013F088A1518218A15003044
:101FCE008A1518218A158A15BB208A1501308312AD
:101FDE000313A2070318A30A0030A307AF2F83121F
:101FEE0003132C084402031CFD2FFE2FAB2FC4013C
:021FFE000800D9
:02400E00D538A3
:00000001FF
