:020000040000FA
:040000008A11FD2F35
:100E00008312031306168A116F278A1108008312B2
:100E1000031306128A116F278A1108000F308316F8
:100E2000031387006030860077308F00831203132E
:100E3000071308008312031307120D30F100FB3073
:100E4000F000F00B212FF10B212F262F831203131B
:100E500007160630F2001330F100AD30F000F00B51
:100E60002F2FF10B2F2FF20B2F2F362F831203135F
:100E700007120D30F100FB30F000F00B3D2FF10BAD
:100E80003D2F422F08008A110E278A11F701F80121
:100E900077088A11A0278A110630F6001330F50072
:100EA000AD30F400F40B522FF50B522FF60B522FEE
:100EB000592F0130F7070318F80A0030F8077808AF
:100EC000803AFF0080307F02031D682FFF307702D9
:100ED000031C6B2F6C2F482F462F8A11002883127A
:100EE000031307130230F2000430F100BA30F000AF
:100EF000F00B782FF10B782FF20B782F0000831274
:100F0000031307170230F2000430F100BA30F0008A
:100F1000F00B882FF10B882FF20B882F0000831223
:100F2000031307130230F2000430F100BA30F0006E
:100F3000F00B982FF10B982FF20B982F0000080060
:100F4000F300731CA42FA52FA92F8A1100278A1143
:100F5000AC2F8A1107278A11F31CAF2FB02FB42FA3
:100F60008A1100278A11B72F8A1107278A11731D4A
:100F7000BA2FBB2FBF2F8A1100278A11C22F8A11C7
:100F800007278A11F31DC52FC62FCA2F8A110027E4
:100F90008A11CD2F8A1107278A11731ED02FD12FC6
:100FA000D52F8A1100278A11D82F8A1107278A1175
:100FB000F31EDB2FDC2FE02F8A1100278A11E32F8D
:100FC0008A1107278A11731FE62FE72FEB2F8A114B
:100FD00000278A11EE2F8A1107278A11F31FF12F9C
:100FE000F22FF62F8A1100278A11F92F8A1107276D
:100FF0008A118A111A278A11080083018A11432F46
:02400E00D538A3
:00000001FF
