:020000040000FA
:040000008A11FD2F35
:100C8A008312031306168A115F268A11080083123B
:100C9A00031306128A115F268A1108000F30831681
:100CAA00031387006030860077308F0083120313A6
:100CBA00071308008312031307130330F000F00B25
:100CCA00642E8312031307170330F000F00B6B2E08
:100CDA008312031307130330F000F00B722E08007F
:100CEA008312031307120330F000F00B7A2E8312DB
:100CFA00031307160330F000F00B812E831203133F
:100D0A0007120330F000F00B882E08008A115326D0
:100D1A008A118A1183278A111A30FA005E30F90083
:100D2A006E30F800F80B972EF90B972EFA0B972EC8
:100D3A0000008A110B278A111A30FA005E30F90076
:100D4A006E30F800F80BA72EF90BA72EFA0BA72E78
:100D5A0000008E2E8A110028F100711CB52EB62EC5
:100D6A00BA2E8A1145268A11BD2E8A114C268A115D
:100D7A00F11CC02EC12EC52E8A1145268A11C82EF5
:100D8A008A114C268A11711DCB2ECC2ED02E8A1197
:100D9A0045268A11D32E8A114C268A11F11DD62E88
:100DAA00D72EDB2E8A1145268A11DE2E8A114C2671
:100DBA008A11711EE12EE22EE62E8A1145268A112B
:100DCA00E92E8A114C268A11F11EEC2EED2EF12EF7
:100DDA008A1145268A11F42E8A114C268A11711F0E
:100DEA00F72EF82EFC2E8A1145268A11FF2E8A111B
:100DFA004C268A11F11F022F032F072F8A1145262D
:100E0A008A110A2F8A114C268A110800F601F70165
:100E1A00F501F50A760877040319142F152F222FE6
:100E2A007508F200760A1B2F0310F20DFF3E031D10
:100E3A00192F7208F3007308F50075088A11B12694
:100E4A008A11073076067704031D2C2F2D2F322F97
:100E5A001830F2007208F400682F76087704031934
:100E6A00372F382F532F7603770403193D2F3E2F40
:100E7A00532F0230760677040319442F452F532F38
:100E8A0003307606770403194B2F4C2F532F063065
:100E9A0076067704031D522F532F582F3C30F20049
:100EAA007208F400682F053076067704031D5E2F5A
:100EBA005F2F642F7E30F2007208F400682FFF3033
:100ECA00F2007208F40074088A11B1268A118A1194
:100EDA0075268A110130F6070318F70A0030F7075A
:100EEA007708803AFF0080307F02031D7E2F08308A
:100EFA007602031C812F822F0D2F0800F601F701BD
:100F0A008030F2007208F5007608770403198E2FF4
:100F1A008F2F9C2F7508F200760A952F0310F20C7A
:100F2A00FF3E031D932F7208F3007308F50075083E
:100F3A008A11B1268A11073076067704031DA62F77
:100F4A00A72FAC2F1830F2007208F400E22F7608AF
:100F5A0077040319B12FB22FCD2F76037704031923
:100F6A00B72FB82FCD2F0230760677040319BE2F7C
:100F7A00BF2FCD2F0330760677040319C52FC62F4E
:100F8A00CD2F063076067704031DCC2FCD2FD22F16
:100F9A003C30F2007208F400E22F0530760677043E
:100FAA00031DD82FD92FDE2F7E30F2007208F400ED
:100FBA00E22FFF30F2007208F40074088A11B12699
:100FCA008A118A1175268A110130F6070318F70A61
:100FDA000030F7077708803AFF0080307F02031D50
:100FEA00F82F08307602031CFB2FFC2F852F0800F0
:060FFA0083018A118B2E19
:02400E00D538A3
:00000001FF
